:020000040800F2
:100000000804002005010008650B0008830A0008A9
:10001000610B0008D7050008291500080000000042
:10002000000000000000000000000000990D000822
:100030009706000800000000410D0008D50E0008DA
:100040001F0100081F0100081F0100081F01000810
:100050001F0100081F0100081F0100081F01000800
:100060001F0100081F0100081F0100081F010008F0
:100070001F0100081F0100081F0100081F010008E0
:100080001F0100081F0100081F0100081F010008D0
:100090001F0100081F0100081F0100081F010008C0
:1000A0001F0100081F0100081F0100081F010008B0
:1000B000390F00081F0100081F0100081F01000878
:1000C0001F0100081F0100081F0100081F01000890
:1000D0001F0100081F0100081F0100081F01000880
:1000E000E10600081F0100081F010008DFF810D01A
:1000F00000F040FA0048004781150008AFF3008087
:10010000080400200648804706480047FEE7FEE74F
:10011000FEE7FEE7FEE7FEE7FEE7FEE7FEE7FEE7B7
:10012000D90E0008ED000008F0B480EA0102D40FF7
:100130004200B2EB410F02D20246084611464A0085
:1001400042D0C30DDDB2C1F3C752AD1A202D35DA4E
:10015000C1F3160141F4000204B15242C5F1200678
:1001600002FA06F12A411044B3EBD05F23D0C4B1A8
:10017000012DA0EBC35009DCF0BC4FF0004202EAB5
:10018000C352DBB200F5000000F068B9400000F196
:10019000807000EBC350A0F1807040EAD17049003C
:1001A00009E0490841EAC071A0EBC35000F5000026
:1001B000400800EBC350F0BC00F047B96142012297
:1001C00002EB4101001BF6E7F0BC704781F00041F3
:1001D000AAE780F00040A7E780EA010210B502F02C
:1001E0000043400022D04A001FD0010E01EB1261F3
:1001F000C0F35600C2F3560240F4000042F400027D
:10020000A0FB022000047F39140400D0401C50EAF7
:10021000124001D44000491EC2B20C0604EBD010BB
:10022000401C4008802A02D003E0002010BD20F0CE
:100230000100002900DA0020184310BD30B480EA24
:10024000010202F0004530F0004221F0004013D0DE
:1002500090B1C30DD40DC2F31601C0F31600E41A19
:1002600041F4000140F400027D34914201D3641C4A
:1002700000E04900002C02DA30BC002070474FF447
:1002800000000023914201D3891A034340084FEA3A
:100290004101F7D151B1914202D14FF0004105E047
:1002A00002D24FF0010101E06FF0010103EBC450F5
:1002B000284430BC00F0C9B82DE9F04D81EA0304B0
:1002C00004F0004B21F0004514464FF0000A23F0E3
:1002D000004150EA050220D054EA01021DD0C5F3C6
:1002E0000A570246C5F31303C1F31300C1F30A56BC
:1002F00040F4801543F48013A7EB0608101BD64684
:1003000008F2FD3873EB050002D308F1010801E0A3
:1003100092185B41B8F1000F03DA00200146BDE8F6
:10032000F08D00204FF48011064684460EE0171B26
:1003300073EB050705D3121B63EB050306434CEA79
:10034000010C49084FEA300092185B4150EA01075E
:10035000EDD152EA030012D082EA040083EA0501DB
:10036000084305D0101BAB4106D20122002306E052
:1003700000224FF0004302E06FF0010253101AEB2D
:1003800006004CEB085110EB0A0041EB0B01BDE8F5
:10039000F04D00F091B80EB5C10F80EAE07008444E
:1003A000CA07002140F233438DE80E000A460B468F
:1003B00000F091F803B000BD00F0004220F00040D2
:1003C000C10DC0F3160040F400007F2901DA0020BF
:1003D0007047962903DCC1F19601C84001E09639C7
:1003E0008840002AF4D04042704720F00040C10D00
:1003F000C0F3160040F400007F2901DA00207047A6
:10040000962903DCC1F19601C840704796398840AF
:10041000704701F0004330B421F0004150EA01027E
:1004200006D00A0DA2F56072C1F31301002A02DCA6
:1004300030BC00207047440F44EAC104C100E018FA
:1004400030BC00EBC250AFF300800029A8BF70475A
:10045000401C490008BF20F00100704710B4B0FAFA
:1004600080FC00FA0CF050EA010404BF10BC704795
:1004700049B1CCF1200421FA04F411FA0CF118BFAF
:10048000012121430843A3EB0C01CB1D4FEA00617E
:100490004FEA102042BF002010BC704700EBC35051
:1004A00010440029A4BF10BC7047401C490008BF7D
:1004B00020F0010010BC704710B5141E73F1000449
:1004C00008DA401C41F1000192185B411A4301D146
:1004D00020F0010010BD2DE9F04D92469B4611B170
:1004E000B1FA81F202E0B0FA80F22032904600F0D8
:1004F00053F804460F4640EA0A0041EA0B0153460E
:100500005A46084313D0114653EA010019D0C8F1E6
:100510004002504600F04FF805460E4650465946F8
:10052000424600F039F8084305D0012004E0204697
:100530003946BDE8F08D0020054346EAE0762C43BD
:1005400037430A986305E40AA0EB08000022FD0A7D
:1005500044EA47540A3002D500200146E9E7010584
:1005600010196941DDE9084500196941BDE8F04D00
:10057000A2E70000064C074D06E0E06840F00103EA
:1005800094E8070098471034AC42F6D3FFF7B2FD69
:100590007C1700089C170008202A04DB203A00FA88
:1005A00002F1002070479140C2F1200320FA03F3CA
:1005B000194390407047202A04DB203A21FA02F0C8
:1005C0000021704721FA02F3D040C2F1200291408D
:1005D00008431946704700BFFEE710B54FF4487155
:1005E000502001F045F8C82001F07BF84FF4167157
:1005F000502001F082F8C82001F073F84FF44871E0
:10060000502001F048F8C82001F06BF84FF4FA616F
:10061000502001F072F8C82001F063F84FF44871DF
:10062000502001F038F8C82001F05BF801214FF4A8
:10063000E16000F0F7F810BD10B54FF4487150209C
:1006400001F029F8C82001F04CF84FF41671502041
:1006500001F053F8C82001F044F84FF448715020DD
:1006600001F006F8C82001F03CF84FF4FA61502080
:1006700001F043F8C82001F034F84FF448715020DD
:1006800000F0F6FFC82001F02CF800214FF4E160E3
:1006900000F0C8F810BD704700B5034603E04FF402
:1006A0007A7000F005F8181EA3F10103F7D100BD20
:1006B00000EBC001C9004FF0E022516100219161BF
:1006C0000521116100BF4FF0E021096901F480317B
:1006D0000029F8D004214FF0E0221161704700009A
:1006E0002DE9F0414FF4804000F03EF870B34FF434
:1006F0008041174800F0B8F9012808D1002180078F
:1007000000F00AFE0121880700F079FC1AE00021C0
:100710004FF0804000F073FC4FF0804000F07BFC15
:1007200000EB800000EB001044002046FFF733FE92
:1007300005460022074BFFF7BFFD0746FFF769FE9E
:10074000054908604FF4804000F008F8BDE8F081EA
:10075000000C0140000069400000002001490860D1
:100760007047000014040140014600200022074B9E
:100770001B6803EA0102054B14331B680B4013B1DD
:100780000AB1012000E00020704700000004014091
:10079000002123498279002A3AD00A461268036868
:1007A0009A430B461A600A1D126803689A430B1D90
:1007B0001A60027911440A6803681A430A60184AE9
:1007C0000832126803689A43154B08331A601A1DE1
:1007D000126803689A43124B0C331A604279102A4C
:1007E0000ED11A1F126803681A430D4B08331A60A2
:1007F0001A1D126803681A43094B0C331A600DE086
:100800000749427911440A6803681A430A6005E0FF
:10081000027911440A6803689A430A60704700002D
:100820000004014070B504460D460026002150200A
:1008300000F063FF1CE000F06FF9012803D000F026
:10084000A1FA01280ED125B19621502000F0EAFE30
:1008500003E09621502000F0F8FE0021502000F027
:100860004CFF70BD0A20FFF717FF06F10A0086B2A1
:10087000A642E0DB642000F034FF00BFF1E7000097
:1008800030B500228B071C0F0F2303FA04F20B4B29
:100890008C1053F824309343084C8D1044F82530C5
:1008A00023468C1053F824308C07240F00FA04F4EC
:1008B0002343024C8D1044F8253030BD0800014020
:1008C0002DE9F041024600250026002000230024E7
:1008D000002791F803C00CF00F0591F803C00CF04D
:1008E000100CBCF1000F03D091F802C04CEA0505D2
:1008F00091F800C0BCF1000F31D0146800202BE04B
:100900004FF0010C0CFA00F3B1F800C00CEA03063A
:100910009E4220D183004FF00F0C0CFA03F7BC432A
:1009200005FA03FC4CEA040491F803C0BCF1280F5B
:1009300006D14FF0010C0CFA00FCC2F814C00AE01A
:1009400091F803C0BCF1480F05D14FF0010C0CFA2F
:1009500000FCC2F810C0401C0828D1D31460B1F8C4
:1009600000C0BCF1FF0F34DD546800202EE000F120
:10097000080C4FF0010808FA0CF3B1F800C00CEABB
:1009800003069E4221D183004FF00F0C0CFA03F7AF
:10099000BC4305FA03FC4CEA040491F803C0BCF123
:1009A000280F05D100F1080C08FA0CF8C2F81480E1
:1009B00091F803C0BCF1480F07D100F1080C4FF0CB
:1009C000010808FA0CF8C2F81080401C0828CED3A1
:1009D0005460BDE8F0810000F0B50A460023002411
:1009E0000021002500F00046B6F1004F02D11D4E57
:1009F000F16901E01B4E7168C0F3034583B200F456
:100A00004016B6F5401F08D121F07061154E76688A
:100A100026F07066134F7E6012E000F48016B6F583
:100A2000801F06D1032606FA05F4A14341F0706148
:100A300006E0460D360103FA06F6B14341F0706157
:100A400022B1460D360103FA06F6314300F00046A6
:100A5000B6F1004F02D1034EF16101E0014E716029
:100A6000F0BD0000000001400246002093680B40EA
:100A70000BB1012000E00020704741617047016127
:100A8000704700BFFEE7000008B50121082000F014
:100A900069F948208DF803004FF44050ADF800008C
:100AA00003208DF8020069460148FFF709FF08BDE1
:100AB000000C014010B500244FF400410A48FFF734
:100AC000D3FF70B91420FFF7E7FD00BF4FF40041DA
:100AD0000548FFF7C9FF0028F8D01420FFF7DCFD18
:100AE0000124204610BD00000008014008B5012186
:100AF000042000F037F948208DF803004FF400403F
:100B0000ADF8000003208DF8020069460148FFF7A8
:100B1000D7FE08BD0008014010B54FF4005102484F
:100B2000FFF7A2FF10BD0000000C01402DE9F041CD
:100B30000027002500260AE000F0D4FC0446002C23
:100B400001DD27446D1C3220FFF7A6FD761C032E25
:100B5000F2DB15B90020BDE8F08197FBF5F0FAE76C
:100B600000BFFEE77047000070B5002100230F2290
:100B7000C47804B3154C246804F4E064C4F5E0645C
:100B8000210AC1F10403CA40447804FA03F18478CD
:100B90001440214309010E4C0678A155047804F055
:100BA0001F050124AC4005786D11AD0005F1E0256D
:100BB000C5F8004109E0047804F01F050124AC40A9
:100BC000044D0678761145F8264070BD0CED00E026
:100BD00000E400E080E100E002490143024A1160C4
:100BE000704700000000FA050CED00E000B589B088
:100BF0000121042000F0A6F80121082000F0B2F83D
:100C00004020ADF8200018208DF8230003208DF837
:100C1000220008A94848FFF753FE8020ADF82000C5
:100C200018208DF8230003208DF8220008A94248DF
:100C3000FFF746FE4FF48070ADF8200018208DF8C5
:100C4000230003208DF8220008A93B48FFF738FE57
:100C50004FF40070ADF8200018208DF82300032019
:100C60008DF8220008A93448FFF72AFE6320ADF86A
:100C700018002320ADF814000020ADF81A00ADF8DC
:100C8000160005A92D4800F049FB6020ADF80400CE
:100C90000120ADF806000020ADF80A00ADF80C0008
:100CA00001A9264800F0D4F96020ADF80400012025
:100CB000ADF806000020ADF80A00ADF80C0001A95F
:100CC0001E4800F01BFA6020ADF804000120ADF8CA
:100CD00006000020ADF80A00ADF80C0001A9174885
:100CE00000F06CFA6020ADF804000120ADF80600B9
:100CF0000020ADF80A00ADF80C0001A90F4800F083
:100D0000B7FA08210D4800F0EFF908210B4800F070
:100D100047FA0821094800F0A1FA0821074800F025
:100D2000E5FA0121054800F05BF90121034800F0D4
:100D300066F909B000BD0000000C01400008004049
:100D40007047000029B1064AD2690243044BDA61B8
:100D500004E0034AD2698243014BDA617047000024
:100D60000010024029B1064A92690243044B9A617D
:100D700004E0034A92698243014B9A617047000084
:100D80000010024010B54FF480510248FFF76CFE8E
:100D900010BD0000000C0140704710B5472144F61B
:100DA0001F6000F0D5F810BD2DE9F04104460B4955
:100DB0002046FFF743FA80460949FFF70DFA074638
:100DC0000849FFF7B1F90646FFF70FFB85B2294640
:100DD000054800F09AFABDE8F081000000003443B5
:100DE0000000FA440000FA430004004010B500F08F
:100DF00001F810BD0CB50020019000903348006848
:100E000040F480303149086000BF3048006800F489
:100E1000003000900198401C0190009818B901988A
:100E2000B0F5A06FF1D12948006800F4003010B18E
:100E30000120009001E0002000900098012843D19B
:100E40002348006840F01000214908600846006807
:100E500020F0030008600846006840F002000860C7
:100E60001A48406819494860084640684860084682
:100E7000406840F4806048600846406820F47C1078
:100E800048600846406840F4E8104860084600683A
:100E900040F08070086000BF0C48006800F00070EF
:100EA0000028F9D00948406820F00300074948604D
:100EB0000846406840F00200486000BF03484068B0
:100EC00000F00C000828F9D10CBD00000010024011
:100ED000002002407047000010B51348006840F041
:100EE00001001149086008464068104908400E4951
:100EF0004860084600680E4908400B4908600846EB
:100F0000006820F4802008600846406820F4FE0055
:100F100048604FF41F008860FFF768FF4FF00060E3
:100F20000449086010BD0000001002400000FFF8F6
:100F3000FFFFF6FE08ED00E010B50121880700F084
:100F40006DF818B10121880700F056F810BD0000B7
:100F500030B589B005460C4601210220FFF7F2FEAC
:100F600001210920FFF7FEFE01211A48FFF734FD99
:100F70002020ADF8200018208DF8230003208DF8E4
:100F8000220008A91448FFF79BFCADF81850ADF8F3
:100F900014400020ADF81A00ADF8160005A90F485E
:100FA00000F0BCF97020ADF804000120ADF8060097
:100FB0000220ADF80C0001A9084800F09FF80821B4
:100FC000064800F0EDF80121044800F018F809B0D7
:100FD00030BD000000081A00000C01400004004071
:100FE00021B1028842F08002028004E002884FF6BC
:100FF0007F731A4002807047CA430282704721B152
:10100000028842F00102028004E002884FF6FE737B
:101010001A40028070470146888C704730B50246FE
:10102000002000230024158A05EA0103958905EABA
:10103000010413B10CB1012000E0002030BD1AB151
:1010400083890B43838102E083898B4383817047CB
:1010500070B5002400220023058C4FF6FE76354043
:101060000584028C8388048B4FF68F752C40B51E47
:101070002C400D882C43751E2A400D892A434D882B
:101080002A43144DA8420BD0134DA84208D0134D4B
:10109000A84205D0124DA84202D0124DA84213D149
:1010A0004FF6F7752A404D892A434FF6FB752A40C3
:1010B0008D882A434FF6FF652B404FF6FF552B4096
:1010C0008D892B43CD892B4383800483CD888586EE
:1010D000028470BD002C01400034014000400140FA
:1010E00000440140004801400A460021018B4FF6B0
:1010F000F7731940114301837047000070B5002455
:1011000000220023058C4FF6EF7635400584028CD3
:101110008388048B48F6FF752C404FF6FF452C4022
:101120000D884FF6FF7606EA05252C434FF6DF754E
:101130002A400D8906EA05152A434D8806EA051559
:101140002A43154DA84202D0144DA8421DD14FF696
:101150007F752A404D894FF6FF7606EA05152A432A
:101160004FF6BF752A408D8806EA05152A434FF6CB
:10117000FF352B404FF2FF752B408D8906EA850520
:101180002B43CD8906EA85052B4383800483CD88D4
:101190000587028470BD0000002C0140003401402E
:1011A0000A460021018B4FF2FF7319404FF6FF737F
:1011B00003EA0223194301837047000070B500243D
:1011C00000220023058C4FF6FF6635400584028C13
:1011D0008388848B4FF68F752C404FF6FC752C401E
:1011E0000D882C434FF6FF552A400D894FF6FF76A8
:1011F00006EA05252A434D8806EA05252A43154DAA
:10120000A84202D0144DA8421DD14FF2FF752A40CA
:101210004D894FF6FF7606EA05252A434FF6FF353E
:101220002A408D8806EA05252A434EF6FF752B4095
:101230004DF6FF752B408D8906EA05152B43CD89A8
:1012400006EA05152B4383808483CD888587028435
:1012500070BD0000002C0140003401400A4600210E
:10126000818B4FF6F773194011438183704700005B
:1012700070B5002200230024058C4EF6FF76354021
:101280000584038C8488828B48F6FF752A404FF6CC
:10129000FF452A400D884FF6FF7606EA05252A43CA
:1012A0004DF6FF752B400D8906EA05352B434D8819
:1012B00006EA05352B430B4DA84202D00A4DA84241
:1012C00008D14BF6FF752C408D894FF6FF7606EA64
:1012D00085152C4384808283CD88A0F840500384F8
:1012E00070BD0000002C0140003401400A4600217E
:1012F000818B4FF2FF7319404FF6FF7303EA02230D
:1013000019438183704781867047018770478187C1
:101310007047A0F84010704781847047002202880F
:101320001D4B98420ED01D4B98420BD0B0F1804F10
:1013300008D01B4B984205D01A4B984202D01A4B4A
:10134000984204D14FF68F731A404B881A43174BBB
:10135000984207D0164B984204D04FF6FF431A40EC
:10136000CB881A4302808B8883850B8803850A4BC0
:1013700098420BD0094B984208D00E4B984205D0AA
:101380000D4B984202D00D4B984201D10B7A038647
:101390000123838270470000002C0140003401408B
:1013A0000004004000080040000C00400010004015
:1013B000001400400040014000440140004801404A
:1013C0007FB504460D4601210846FFF7BBFC41F2FC
:1013D0008830ADF8080041F61F40ADF80400002049
:1013E000ADF80A00ADF8060001A94FF08040FFF704
:1013F00095FF012241218807FFF721FE1C208DF86F
:10140000000000208DF8010003208DF8020001206B
:101410008DF803006846FFF7A7FB7FBD70B5FFF7A7
:101420007BFB0446FFF7AEFC05462CB925B900212D
:10143000462000F062F912E0012C05D125B9002107
:101440003C2000F0EFF80AE034B9012D04D100216E
:101450003C2000F0FAF802E0002000F042F970BDF4
:101460001FB501210920FFF77DFC4FF40040ADF8C6
:101470000C0010208DF80F0003208DF80E0003A93A
:101480001748FFF71DFA4FF48040ADF80C002820F4
:101490008DF80F0003A91248FFF712FA0E21012060
:1014A000FFF7EEF94FF48040019000208DF808001E
:1014B00010208DF8090001208DF80A0001A8FFF71F
:1014C00067F928208DF8000002208DF801008DF8C2
:1014D000020001208DF803006846FFF745FB1FBDA1
:1014E000000C014070B54FF400410C48FFF7C7FAFB
:1014F0001420FFF7DDF84FF400410848FFF7BDFA6C
:101500001E20FFF7C9F8064906480068FEF764FE8A
:101510000546FEF751FF0446204670BD000C014011
:10152000000020410000002000BFFEE702E008C8E4
:10153000121F08C1002AFAD170477047002001E04D
:1015400001C1121F002AFBD17047000010B50448EA
:10155000FFF72AFC6420FFF79FF8FFF7C3FF10BDD9
:101560000000B44210B50548FFF71EFC4FF42F7081
:10157000FFF792F8FFF7DAFA10BD000000002F43E2
:10158000002741F61F4141F28830FFF719FF4FF461
:10159000A060FFF721FBFFF7A9FAFFF761FF00F05A
:1015A000CFF8FFF7FAFBFFF76FFA1D48FFF7FCFBD8
:1015B00000BFFFF77FFA0028FBD030E0FFF72EFFD7
:1015C0000520FFF769F8781C87B21E2F00DA26E0A5
:1015D0000027FFF7BBFF04463C2C1FDA002C1DDD63
:1015E000962000F07EF84FF4FA71462000F066F87D
:1015F000962000F076F8FFF7B5FF054600F092F868
:1016000006460748FFF7D0FBC820FFF745F8B5426C
:1016100002DDFEF7E2FF01E0FFF70EF800BFCDE7C5
:101620000000B44270B504460D46642C00DD64240D
:10163000002C00DA0024E2B200231946184600F01C
:1016400083F82846FFF728F870BD70B504460D46AC
:10165000642C00DD6424002C00DA0024E0B20023B6
:101660001A46194600F070F82846FFF715F870BDC5
:1016700070B504460D46642C00DD6424002C00DAAD
:101680000024E2B2E1B20023184600F05DF82846DB
:10169000FFF702F870BD70B504460D46642C00DDFE
:1016A0006424002C00DA0024E3B2E0B200221146E8
:1016B00000F04AF82846FEF7EFFF70BD70B504460B
:1016C0000D46642C00DD6424002C00DA0024E3B213
:1016D000E1B20022104600F037F82846FEF7DCFFA2
:1016E00070BD10B5044600231A461946184600F08E
:1016F0002BF82046FEF7D0FF10BD70B504460D460E
:10170000642C00DD6424002C00DA0024E11FCAB23E
:10171000E0B20023194600F017F82846FEF7BCFF98
:1017200070BD000010B50548FFF73EFB4FF42F7069
:10173000FEF7B2FFFFF7FAF910BD00000000A0406D
:1017400010B5FFF753FA10BD2DE9F04104460F46DE
:1017500015461E4621460848FFF7D5FD394606487E
:10176000FFF7D3FD29460448FFF7D1FD3146024873
:10177000FFF7CFFDBDE8F081000800409C1700088E
:1017800000000020040000002C150008A01700082D
:1017900004000020040400003C15000800000000C4
:04000005080000ED02
:00000001FF
